:020000040800F2
:100000006007002089010008E71B0008C9130008E9
:10001000E51B00088B020008931E0008000000008A
:10002000000000000000000000000000EB1B0008C2
:100030008D02000800000000E91B0008ED1B00080D
:10004000A3010008A3010008A3010008A301000800
:10005000A3010008A3010008A3010008A3010008F0
:10006000A3010008A3010008A3010008A3010008E0
:10007000A3010008A3010008A3010008A3010008D0
:10008000A3010008A3010008A3010008A3010008C0
:10009000A3010008A3010008A3010008A3010008B0
:1000A000A3010008A3010008A3010008A3010008A0
:1000B000A3010008A3010008A3010008A301000890
:1000C000A3010008A3010008A3010008A301000880
:1000D000A3010008A3010008A3010008A301000870
:1000E000A3010008A3010008A301000800F002F822
:1000F00000F03AF80AA090E8000C82448344AAF188
:100100000107DA4501D100F02FF8AFF2090EBAE885
:100110000F0013F0010F18BFFB1A43F0010318473B
:10012000C8330000E8330000103A24BF78C878C113
:10013000FAD8520724BF30C830C144BF04680C60ED
:10014000704700000023002400250026103A28BF35
:1001500078C1FBD8520728BF30C148BF0B60704739
:100160001FB51FBD10B510BD00F05CF81146FFF7BC
:10017000F7FF02F0E5F800F07AF803B4FFF7F2FFBA
:1001800003BC00F07BF8000009488047094800479D
:10019000FEE7FEE7FEE7FEE7FEE7FEE7FEE7FEE737
:1001A000FEE7FEE704480549054A064B7047000094
:1001B0004F1C0008ED0000086001002060070020CF
:1001C00060030020600300204FF0000200B51346DA
:1001D00094469646203922BFA0E80C50A0E80C5067
:1001E000B1F12001BFF4F7AF090728BFA0E80C5018
:1001F00048BF0CC05DF804EB890028BF40F8042B11
:1002000008BF704748BF20F8022B11F0804F18BF7D
:1002100000F8012B704770477047704700487047DF
:10022000FC0000207546FFF7F9FFAE460500694661
:10023000534620F00700854618B020B5FFF7B2FFFF
:10024000BDE820404FF000064FF000074FF00008D7
:100250004FF0000B21F00701AC46ACE8C009ACE858
:10026000C009ACE8C009ACE8C0098D467047044637
:10027000AFF300802046FFF780FF000001491820FF
:10028000ABBEFEE7260002007047FEE7704772B67D
:10029000FEE7000070B5044600F0FEF80546601C5D
:1002A00002D004480078044400F0F6F8401BA04255
:1002B000FAD370BD500000202DE9F84FDFF8B89157
:1002C0000024A9F1040B23460F2709F1040AABF11E
:1002D000040EC9E00125A5402A40AA427DD1674EFF
:1002E000D1F804C0ACEB0608B44532D014DCBCF144
:1002F000030F3AD009DCBCF1000F2AD0BCF1010F8A
:100300001CD0BCF1020F31D11DE0BCF1110F17D090
:10031000BCF1120F2AD119E0B8F5881F19D006DCFC
:10032000B8F5803F15D0B8F5801F1FD111E0B8F5A2
:10033000001F0ED0B8F5041F18D10AE0CB6815E0F5
:10034000CB681B1D12E0CB6808330FE0CB680C3381
:100350000CE08B682BB1012B4FF0080303D04561F3
:1003600004E0042302E0056100E00023FF2A01D835
:10037000064601E000F104064FEA840501D9A5F123
:100380002005D6F8008007FA05FC28EA0C0803FAD5
:1003900005F548EA0508C6F800804D68ED0062D50D
:1003A000374DAE6946F00106AE61AD6924F0030633
:1003B00005F001050095334D06EB050CDCF80850FF
:1003C000A607360F07FA06F825EA0805DFF8B88011
:1003D000404503D14FF0000817E044E0DFF8AC805F
:1003E000404502D14FF001080FE0DFF8A4804045FE
:1003F00002D14FF0020808E0DFF89880404502D1B2
:100400004FF0030801E04FF0040808FA06F848EA44
:100410000508CCF808804D68D9F80060ED024D461B
:1004200001D5164300E096432E604D68DAF800606F
:10043000AD02554601D5164300E096432E604D6847
:10044000DBF80060AD035D4601D5164300E096433E
:100450002E604D68DEF80060ED03754601D5164349
:1004600000E096432E60641C0D682A46E5407FF448
:1004700031AFBDE8F88F0000080401400000111002
:10048000001002400000014000080140000C014043
:1004900000100140001401400148806870470000CE
:1004A0005000002070B5040025D094F83D000025D0
:1004B00020B984F83C50204600F076FA242084F8D5
:1004C0003D002068016821F0010101602068016899
:1004D00041F4004101602068016821F4004101609D
:1004E00000F0B0FB4D4A6168914201D84C4900E0F0
:1004F0004C49884201D2012070BD4B492368B0FBB2
:10050000F1F15E6826F03F060E435E606368934239
:1005100006D94FF4967359434FF47A73B1FBF3F154
:100520002368491C1E6A26F03F0631431962616840
:10053000914210D84900401EB0FBF1F2521CC2F3A8
:100540000B02042A01D2042022E0B0FBF1F0401C8F
:10055000C0F30B001CE0A268F2B301EBC10303EB94
:100560000116431EB3FBF6F35B1C43F480431B05EB
:1005700049D092B301EBC10202EB0111401EB0FB66
:10058000F1F0401CC0F30B0040F4804040F4004008
:100590002168CA694CF6FF739A431043C861D4E9D5
:1005A000071001432068026822F0C0021143016075
:1005B000D4E9030101432068826848F2FF339A437B
:1005C00011438160D4E9050108432168CA6822F01B
:1005D000FF021043C86001E00EE016E020680168E9
:1005E00041F0010101602564202084F83D0025636D
:1005F00084F83E50002070BD01EB4106431EB3FB62
:10060000F6F35B1CB3E70120C2E701EB4101401E9A
:10061000B0FBF1F0401CC0F30B00B7E7A08601006F
:1006200080841E0000093D0040420F002DE9F84F74
:100630000025DDF82890984617468A46044600951E
:10064000FFF72AFF064694F83D0020287AD11923A7
:10065000012286492046009600F0BEFF0028F5D111
:1006600094F83C0001286DD0012084F83C002068FB
:100670000168C90703D1016841F0010101602068E8
:10068000016821F400610160222084F83D001020FF
:1006900084F83E0025646762A4F82A80608D208576
:1006A0007348E06233464A465146204600F0A4FEB5
:1006B00000287CD1208DDFF8BC81202768B101287B
:1006C00014D00228206801681ED041F480610160C6
:1006D0002068416980690090BBE0206841698169B8
:1006E0000091016841F400710160B2E02068016886
:1006F00021F48061016072B62068416981690091CE
:10070000016841F400710AE041F40061016072B6D1
:100710002068416981690091016821F4806101606C
:1007200062B696E0032865D801280CD002284B4613
:100730004FF000024146204600960BD000F04CFFDF
:10074000A8BB0CE090E032464946204600F0EAFFA4
:1007500068BB71E000F040FF48BB72B633E0206830
:10076000016821F48061016072B620680069616AE5
:100770000870606A401C6062208D401E2085608D7C
:10078000401E60853C4846F2A8110068B0FBF1F0BD
:10079000C0EBC00000EB80000090401E009007D02E
:1007A00020684069C04340070DD50098F5E727E071
:1007B00044F8305F6773A573206940F02000206122
:1007C00062B625731CE02068016841F40071016085
:1007D00020680069616A0870606A401C6062218D4F
:1007E000491E2185618D491E618562B621680969AE
:1007F000017025E032464946204600F093FF10B1D3
:100800000120BDE8F88F20680069616A0870606A9D
:10081000401C6062208D401E81B22185608D401E8B
:10082000608520684269D243520712D4032903D15C
:10083000016821F48061016020680069616A0870C4
:10084000606A401C6062208D401E2085608D401EC5
:100850006085208D00287FF465AF84F83D7084F8B2
:100860003E5084F83C50CCE70220CAE7020010005A
:100870000000FFFF040001005C0000202DE9F84F9C
:100880001F4690468A460446DDF82890FFF704FE8E
:10089000054694F83D0020287FD1192301224049C4
:1008A0002046009500F098FE002876D194F83C0090
:1008B000012872D0012084F83C0020680168C90733
:1008C00003D1016841F0010101602068016821F451
:1008D00000610160212084F83D00102084F83E0072
:1008E00000262664C4F824806785608D20852D4805
:1008F000E0622B464A465146204600F0F3FD90B98F
:10090000206841698069009036E02A4649462046C1
:1009100000F040FF50B1206C042804D12068016829
:1009200041F4007101600120BDE8F88F606A216820
:1009300000780861606A401C6062618D491E6185B3
:10094000218D491E89B2218522685369DB435B07EB
:100950000BD451B100781061606A401C6062608DF8
:10096000401E6085208D401E20852A46494620462F
:1009700000F006FE0028CED1208D0028C5D154F805
:100980003D0B016841F400710160202004F81E094C
:10099000E67766770020C7E7FFE70220C4E700009C
:1009A000020010000000FFFF10B586B0002100918A
:1009B00001910291039100680F4988421AD10F4CAE
:1009C000A06940F00800A061A069694600F0080035
:1009D0000490C0200090122001900320039008484A
:1009E000FFF76AFCE06940F40010E061E06900F4A0
:1009F0000010049006B010BD0054004000100240EA
:100A0000000C0140024881680278114481607047FF
:100A100050000020074810B5016841F01001016046
:100A2000032000F067F80F2000F006F800F024F82B
:100A3000002010BD0020024070B50D4D04464FF45B
:100A40007A712878B1FBF0F00A490968B1FBF0F03F
:100A500000F0BEFA48B9102C07D200222146501EE1
:100A600000F028F800206C6070BD012070BD00000F
:100A7000500000205C0000200C4808B5816941F05E
:100A800001018161816901F001010091C16941F0B9
:100A90008051C161C06900F08050009004484168F5
:100AA00021F0E06141F00071416008BD001002409A
:100AB00000000140F0B40E4B1B680C46C3F3022348
:100AC000C3F10705042D00D90425191D072901D2FA
:100AD000002300E0DB1E012606FA05F1491E214035
:100AE00099409E40761E16403143F0BC01F0E6B9B5
:100AF0000CED00E0064900F0070208684FF6FF031E
:100B0000184040EA0220034A104308607047000082
:100B10000CED00E00000FA052DE9F0470F46050056
:100B200061D0434E306800F00700B84209D2306807
:100B300020F0070038433060306800F00700B8420A
:100B400051D128683B4C810712D5400703D5606816
:100B500040F4E06060602878000703D5606840F4E6
:100B6000605060606068A96820F0F0000843606031
:100B70002878C00728D06868012810D0216802288A
:100B800010D0890700292EDA616821F003010143A2
:100B90006160FFF781FC804641F288390DE02168F1
:100BA0008903EFE78901EDE7FFF776FCA0EB080189
:100BB000494502D90320BDE8F0876068696800F004
:100BC0000C00B0EB810FEFD1306800F00700B842A5
:100BD0000BD9306820F0070038433060306800F0EF
:100BE0000700B84201D00120E5E72878400705D585
:100BF0006068E96820F4E0600843606028780007D6
:100C000006D56068296920F4605040EAC100606040
:100C100000F028F86168084AC1F30311515CC8402C
:100C20000649086006480068FFF706FF0020C2E793
:100C30000020024000100240303400085C00002018
:100C4000540000200448054900684968044AC1F37B
:100C50000221515CC84070475C0000200010024037
:100C6000403400080E4A51680E4801F00C03042B72
:100C700011D0082B0FD10C48C1F38343C903C05CCA
:100C80000AD55168084AC1F34041921E515C054A99
:100C90005043B0FBF1F070470449484370470000EF
:100CA0000010024000127A002034000800093D00C4
:100CB0002DE9F84F040070D02078C04DC00749D00E
:100CC0006868C0F38100012807D06868C0F381001C
:100CD000022809D16868C00306D52868800339D581
:100CE00060680028E7D035E06068B0F5803F0BD041
:100CF00010B1B0F5A02F11D0286820F48030286002
:100D0000286820F4802002E0286840F480302860C1
:100D1000606890B1FFF7C0FB06460AE0286840F41F
:100D200080202860F0E700BFFFF7B6FB801B642837
:100D300073D828688003F7D50CE0FFF7ADFB0646B3
:100D400005E000BFFFF7A8FB801B6428F0D82868E7
:100D50008003F7D420789A4E80074FF001094FF0B6
:100D6000000839D5686810F00C0F07D06868C0F328
:100D70008100022809D16868C00306D4286880076A
:100D800014D52069012808D110E02069B0B1C6F857
:100D90000090FFF781FB074605E00AE1FFF77CFBC7
:100DA000C01B0228C4D828688007F7D52868616965
:100DB00020F0F80040EAC10028600DE0C6F800808D
:100DC000FFF76AFB074604E0FFF766FBC01B02283B
:100DD00023D828688007F7D4207800072CD57948D5
:100DE000A169D9B1C0F80090FFF756FB074604E0AF
:100DF000FFF752FBC01B02280FD8686A8007F7D59F
:100E000071484FF4FA510068B0FBF1F0009000BF58
:100E10000098411E0091FAD20EE080E0C0F80080F8
:100E2000FFF73AFB074604E0FFF736FBC01B02283A
:100E300075D8686A8007F7D42078400760D5E869DC
:100E40000027C00008D4E86940F08050E861E869F4
:100E5000012700F0805000905C480168C90513D458
:100E60000168834641F480710160FFF715FB8246FB
:100E700006E000BFFFF710FBA0EB0A0064284ED885
:100E8000DBF80000C005F5D5E06801280AD008B1FC
:100E9000052813D0286A20F001002862286A20F073
:100EA000040002E0286A40F001002862E06841F294
:100EB000883B98B1FFF7F0FA82460BE0286A40F0D1
:100EC00004002862EEE700BFFFF7E6FAA0EB0A0194
:100ED00059455AD8286A8007F6D50CE0FFF7DCFAA6
:100EE000824605E0FFF7D8FAA0EB0A0159454CD835
:100EF000286A8007F6D41FB1E86920F08050E861C5
:100F0000E06988B36968C1F38101022944D00228ED
:100F1000C6F8608004D0FFF7BFFA044638E034E03A
:100F2000FFF7BAFA074604E0FFF7B6FAC01B02283B
:100F30002BD828688001F7D4206AB0F5803F05D10E
:100F40006868A16820F4003008436860D4E90801AB
:100F50000843696821F4741108436860C6F860901A
:100F6000FFF79AFA044606E025E000BFFFF794FA7F
:100F7000001B022809D828688001F7D51BE000BFB4
:100F8000FFF78AFA001B022802D90320BDE8F88F78
:100F900028688001F4D40EE00128F7D06868226A3E
:100FA00000F48031914204D1616A00F470108842EB
:100FB00001D00120EAE70020E8E70000001002402D
:100FC00000004242800442425C0000200070004069
:100FD00010B5401EB0F1807F01D3012010BD4FF04D
:100FE000E02460610F21601700F068FF0020A0611D
:100FF00007202061002010BD70B590F83C20012A28
:1010000026D0012480F83C40022280F83D2003686D
:101010005A689D6822F070060A6832435A600D4B88
:1010200002689A4208D0B2F1804F05D00A4B9A422A
:1010300002D00A4B9A4204D1496825F08003194333
:10104000916080F83D40002180F83C10084670BD5A
:10105000022070BD002C0140000400400008004048
:1010600010B5040003D094F83D0010B107E0012052
:1010700010BD002084F83C00204600F01FF802203C
:1010800084F83D00211D206800F0E2FD012084F875
:10109000460084F83E0084F83F0084F8400084F85D
:1010A000410084F8420084F8430084F8440084F846
:1010B000450084F83D00002010BD000008B5006820
:1010C000B0F1804F08D10548C16941F00101C1610B
:1010D000C06900F00100009008BD0000001002404F
:1010E00070B5044690F83C000025012817D0012671
:1010F00084F83C60022084F83D002068826822F079
:10110000770222F47F4282600868502838D00DDCD4
:1011100020284FD005DC90B3102811D14AE00220DE
:1011200070BD302846D040280AD13BE060282FD03F
:1011300070280DD0B0F5805F03D0B0F5005F12D0FD
:10114000012584F83D60002084F83C00284670BDED
:10115000CB68D1E90121206800F0C3FD20688168D7
:1011600041F0770109E0CB68D1E90121206800F066
:10117000B8FD2068816841F480418160E1E719E0B1
:10118000CA684968206800F061FE5021206806E0C6
:10119000CA684968206800F06AFE6021206800F093
:1011A000AAFDCEE7CA684968206800F04FFE4021DA
:1011B0002068F4E7226801461046F0E700B585B0E4
:1011C000002100910191029103910068B0F1804FDC
:1011D00011D10A48816941F0040181618069694641
:1011E00000F0040004900F20009002200190039072
:1011F0000348FFF761F805B000BD00000010024091
:101200000008014070B5044690F83C0000260D46E9
:1012100001280FD0012084F83C006AB1042A1DD0B7
:10122000082A2FD00C2A3FD00126002084F83C0049
:10123000304670BD022070BD206800F065FD20685A
:10124000816941F0080181612068816921F0040110
:101250008161206881692A69114311E0206800F0EA
:101260007BFD2068816941F40061816120688169AA
:1012700021F480618161206881692A6941EA022143
:101280008161D2E7206800F093FD2068C16941F0D8
:101290000801C1612068C16921F00401C1612068B1
:1012A000C1692A69114311E0206800F0ADFD206892
:1012B000C16941F40061C1612068C16921F48061A4
:1012C000C1612068C1692A6941EA0221C161ACE7B4
:1012D00010B5040003D094F83D0010B107E00120E0
:1012E00010BD002084F83C00204600F01EF80220CB
:1012F00084F83D00211D206800F0AAFC012084F83C
:10130000460084F83E0084F83F0084F8400084F8EA
:10131000410084F8420084F8430084F8440084F8D3
:10132000450084F83D00002010BD704710B504460C
:10133000022249B104290ED0082913D094F84100A3
:10134000012816D0012010BD94F83E000128F9D1E3
:1013500084F83E200FE094F83F000128F2D184F891
:101360003F2008E094F840000128EBD184F84020A9
:1013700001E084F841200122206800F0A5FC0F491B
:101380002068884203D1426C42F4004242642068E3
:10139000884208D0B0F1804F05D00949884202D078
:1013A0000849884204D1816801F00701062903D069
:1013B000016841F001010160002010BD002C0140D6
:1013C0000004004000080040FEE701684A69D2437B
:1013D00052050FD46FF480624A61002140F8301F3B
:1013E000202242738173026942F004020261017398
:1013F00001207047002070472DE9F84F0446C06A6D
:101400001E4693460D4621680A6842F480620A60CF
:10141000082807D0012805D010F5803F02D0206BA6
:10142000112804D12068016841F4807101604FF0F7
:1014300001195B46002249462046009600F0CCF890
:101440004FF4007840B120680068C00501D5C4F8A9
:1014500040800320BDE8F88F2069DFF884A0B0F554
:10146000804F0FD00620216800EAD51747F0F00022
:10147000086133465A460AF10601204600F0F4F8A6
:1014800058BB03E0E8B240F001001CE02168E8B27C
:10149000086133465A465146204600F0E5F8E0B967
:1014A0002068416981690091016841F4807101609F
:1014B0005B46002249462046009600F08DF8002841
:1014C000C1D147F0F1002168086133465A465146C0
:1014D000204600F0C9F80028BCD00120BAE700007F
:1014E00002000100F8B50446C06A1E460D461746C4
:1014F000082807D0012805D010F5803F02D0206BC6
:10150000122804D12068016841F4807101601346FB
:1015100000224FF001112046009600F05DF840B126
:1015200020680068C00502D54FF4007020640320D5
:10153000F8BD2069B0F5804F0ED00620216800EA82
:10154000D51040F0F000086133463A460B4920467A
:1015500000F08AF878B902E005F0FE0000E0E8B299
:1015600021680861054933463A46891F204600F044
:101570007BF80028DCD00120F8BD00000800010045
:1015800070B516460D4604461EE02046FFF71DFFC7
:1015900008B1012070BD681C16D0FEF77DFF801BCE
:1015A000A84200D885B920684069C04340070BD5E0
:1015B000002044F8300F20216173A073216941F0AD
:1015C000200121612073E4E720684069C04340079F
:1015D000DBD4002070BD00002DE9F0479846174687
:1015E0000D460446C1F30746DDF820902AE000BF0F
:1015F000B8F1FF3F26D0FEF74FFFA0EB09014145B0
:1016000002D8B8F1000F1DD12068012E16D08069D4
:1016100025EA00000004000C12D00020B84211D1CD
:10162000002044F8300F20216173A073216941F03C
:101630002001216120730120BDE8F0874069E7E7C0
:101640000120EBE72068012E0AD0806925EA00001E
:101650000004000C06D00020B842C9D00020EBE7FF
:101660004069F3E70120F7E72DE9F0479846164671
:101670000D4604464FF000094FF0200AC1F307471A
:1016800023E020684069C043400515D42068016804
:1016900041F40071016021686FF480604861C4F812
:1016A000309084F83DA084F83E90216C41F0040114
:1016B000216484F83C9021E0701C06D0FEF7ECFE1B
:1016C000A0EB0800B04203D816B1012F1FD021E0D3
:1016D0002068012F15D0806925EA00000004000C65
:1016E00018D000BF44F8309F84F80DA084F80E9005
:1016F000216941F02001216184F80C900120BDE8AE
:10170000F087406925EA00000004000CEAD1206857
:10171000406901E02068806925EA00000004000CAF
:10172000AFD1ECE72DE9F041002590460E46044686
:10173000202728E04069C043C0060CD454F8301B71
:101740006FF01000486144F810596777A577206A58
:101750002062257714E0FEF79FFEA0EB0800B04260
:1017600000D886B920684069C04340060BD544F8CC
:10177000305F6773A573206940F0200020612573F6
:101780000120BDE8F08120684169C9434906D1D4F0
:101790000020F6E770B516460D4604461EE02046CA
:1017A000FFF713FE08B1012070BD681C16D0FEF7CC
:1017B00073FE801BA84200D885B920684069C043E9
:1017C00000060BD5002044F8300F20216173A07370
:1017D000216941F0200121612073E4E7206840691C
:1017E000C0430006DBD4002070BD10B580216B2003
:1017F00000F068FE6420FEF74DFD00216B2000F034
:1018000061FE00211B2000F05DFE0021BDE81040BC
:101810001C2000F057BE00002DE9F05F534C00F093
:10182000B9F8A06901F0A6FADFF84481DFF844A115
:101830004246534601F0AAF806460D46206A01F0DA
:1018400099FA32462B4600F081FE00F04DFE074625
:10185000206901F08FFA4246534601F097F8064698
:101860000D46606A01F086FA32462B4600F06EFEA5
:1018700000F03AFE8146606901F07CFA4246534628
:1018800001F084F806460D46A06A01F073FA32466C
:101890002B4601F085F900F027FE8246E06801F052
:1018A00069FA06460D46A06801F064FA32462B46F6
:1018B00000F086FCDFF8C0B0304B5A4600F0F6FE70
:1018C00000222F4B01F062F800F00EFE8046E06827
:1018D00001F050FA06460D46606801F04BFA3246B8
:1018E0002B4600F06DFC5A46244B00F0DFFE002230
:1018F000244B01F04BF800F0F7FD064648462762FE
:1019000001F038FADFF880B0DFF880905A464B4695
:1019100001F03CF807460D46404601F02BFADFF88F
:1019200070805A46434601F031F83A462B4600F0A3
:101930000DFE00F0D9FD6062504601F01BFA5A46D8
:101940004B4601F023F807460D46304601F012FAE7
:101950005A46434601F01AF83A462B4600F0F6FD87
:1019600000F0C2FDA062BDE8F09F0000240000204E
:101970007B14AE47E17A743F4AD8124DFB210940EF
:1019800000806640008066C09A9999999999E93FCC
:101990009999C93F2DE9F0413B2000F07BFD0402FD
:1019A0003C2000F077FD204404B23D2000F072FDA1
:1019B00005023E2000F06EFD284406B23F2000F0F4
:1019C00069FD0502402000F065FD284405B220466F
:1019D00001F040FB2E4F394601F068FB2D4C606052
:1019E000304601F037FB394601F060FBA060284625
:1019F00001F030FB394601F059FBE060412000F076
:101A000049FD0502422000F045FD284400B24FF494
:101A1000AA7190FBF1F000F0A1FF1F4A1F4B00F0EC
:101A200095FD00F061FDE061432000F033FD05020B
:101A3000442000F02FFD284407B2452000F02AFD85
:101A40000502462000F026FD284406B2472000F09B
:101A500021FD0502482000F01DFD284405B238464E
:101A600001F0F8FA21680F4601F012FA20613046C1
:101A700001F0F0FA394601F00BFA6061284601F0F6
:101A8000E9FA394601F004FAA061BDE8F0810000EE
:101A9000D5FF7F3824000020A4703D0AD743424080
:101AA0000D4808B5816941F020018161816901F02B
:101AB00020010091816941F004018161816901F097
:101AC00004010091816941F008018161806900F0A1
:101AD0000800009008BD0000001002400D4810B53D
:101AE0000B4901600C49416000214FF48042816044
:101AF000C0E9031241618161C1610162FEF7D2FC5C
:101B0000002803D0BDE81040FEF7C1BB10BD0000A7
:101B10000054004060000020A086010010B58EB087
:101B200000240794089409940A940B941C21684695
:101B30000C94FEF749FB2A484FF0804101600821D0
:101B4000C0E901144FF47A71C0E903148461FFF70E
:101B500087FA08B1FEF79BFB4FF48050079007A966
:101B60001F48FFF7BDFA08B1FEF791FB1C48FFF7CD
:101B7000AFFB08B1FEF78BFB0B940BA918480C9434
:101B8000FFF73AFA08B1FEF782FB6020CDE90004C6
:101B900002940022694612480494FFF733FB08B10F
:101BA000FEF775FB042269460D48FFF72BFB08B1D1
:101BB000FEF76DFB082269460948FFF723FB08B1D1
:101BC000FEF765FB0C2269460548FFF71BFB08B1D1
:101BD000FEF75DFB0248FFF7F1FA0EB010BD000002
:101BE000B4000020FEE7FEE770477047FEF70ABF2B
:101BF00030B58FB028216846FEF7E6FA14210AA80E
:101C0000FEF7E2FA01210804CDE900100024029455
:101C100002250491CDE907504FF4E0100990684681
:101C2000FFF746F808B172B6FEE70F20CDE90A05C6
:101C30004FF48060CDE90C4002210AA80E94FEF713
:101C40006BFF002801D072B6FEE70FB030BD7047C1
:101C5000F0B50268194B1A4C1A4D4FF08047984264
:101C600005D0B84203D0A04201D0A84203D122F04F
:101C700070064A683243984205D0B84203D0A04269
:101C800001D0A84203D122F44074CA6822434C69AF
:101C900022F08002224302608A68C2620A6882627D
:101CA000984201D109690163012141610169C907B4
:101CB00003D0016921F001010161F0BD002C014058
:101CC000000400400008004010B501F01F0301218E
:101CD000046A99408C430462016A9A40114301628C
:101CE00010BD10B5846842EA032224F47F440A43FD
:101CF0002243826010BD826822F070020A4342F0E3
:101D0000070181607047000030B5036A026A22F063
:101D1000010202624268846924F073050C682C4356
:101D200023F002058B682B430A4DA8420BD123F008
:101D30000805CB6822F440722B434D6923F004035D
:101D400015438A692A43426084614968416303629A
:101D500030BD0000002C014030B5026A036A23F058
:101D600010030362436884690D6824F4E64444EA7E
:101D700005248D6822F0200242EA05120B4DA8428C
:101D80000ED1CD6822F0800242EA05124D6923F49B
:101D9000406343EA85038D6922F0400243EA8503EC
:101DA0004360846149688163026230BD002C014058
:101DB00030B5036A026A22F4807202624268C46922
:101DC00023F4007324F073050C682C438D6843EAF8
:101DD00005230C4DA8420ED1CD6823F4006343EADD
:101DE00005234D6922F4405242EA05128D6923F41D
:101DF000806342EA05124260C4614968C1630362BC
:101E000030BD0000002C014030B5046A026A22F4A3
:101E1000805202624268C3690D6823F4E64343EAD4
:101E200005238D6824F4005444EA0534064DA84285
:101E300004D14D6922F4804242EA85124260C361B6
:101E400049680164046230BD002C014010B5036A8A
:101E5000046A24F001040462846924F0F00444EA72
:101E6000021423F00A020A438461026210BD10B515
:101E7000036A046A24F010040462846923F0A00356
:101E800024F4704444EA023243EA0111826101629F
:101E900010BDFEE7490050EAC12018BF04204A0DDA
:101EA00018BF40F0010040F2FF72B2EB515F08BF73
:101EB00040F00200012808BF052070470907090EFD
:101EC000002804DB00F1E02080F80014704700F0E7
:101ED0000F0000F1E02080F8141D70472DE9F0415B
:101EE0004F1E00EBC7010446D1E9000115461E460E
:101EF00037F006020DD02A46334600F047FD7F1E1C
:101F000004EBC703D3E9002300F020FB37F00602FF
:101F1000F1D1022F25D0042F13D0062F18BFBDE812
:101F2000F0812A46334600F031FDD4E90A2300F05F
:101F30000DFB2A46334600F029FDD4E9082300F0C2
:101F400005FB2A46334600F021FDD4E9062300F0C4
:101F5000FDFA2A46334600F019FDD4E9042300F0C7
:101F6000F5FA2A46334600F011FDD4E9022300F0C9
:101F7000EDFA2A46334600F009FDD4E90023BDE816
:101F8000F04100F0E3BA012201F003BA00F0DEBA3A
:101F9000024A0020110701F0FCB9000001FDFFFF1B
:101FA0002DE9F84F04460D4621F000400091734999
:101FB000814211DC7249884201DC06D12CB12046F5
:101FC0002946BDE8F84FFFF7DEBF6E48002DCCBFB5
:101FD0006D496E49BDE8F88F6D49814211DD6D494B
:101FE0008142D8BF4FF0FF366DDD20462946FFF70E
:101FF00051FF042808BFFFF7CBFF20462946BDE864
:10200000F88F6549654F25F00045814233DD64490D
:10201000814219DD002632464FF080432046294692
:1020200000F094FA80468A4601222046294601F0B3
:10203000B0F900223B4600F0B3FD4246534600F0A3
:1020400035FB04460D463EE001260022BA463B46DB
:102050002046294600F07AFA80460F460022534671
:102060002046294600F09CFD42463B4600F01EFB00
:1020700004460D4627E04B4981421BDDDFF828A1CD
:102080000226002253462046294600F07FFC00220B
:102090003B4600F05BFA80460F460022534620463E
:1020A000294600F07DFD42463B4600F0FFFA04461B
:1020B0000D4608E0032622462B4600203B4900F04F
:1020C000F5FA04460D4622462B461046194600F006
:1020D0005DFC8B46824602460B4600F057FC0746E5
:1020E0000246334888460B4606217844FFF7F6FE41
:1020F00052465B4600F04AFC82462E488B463A46E2
:10210000434605217844FFF7E9FE3A46434600F08E
:102110003DFC02460B46002E504659460CDA00F0B4
:1021200015FA22462B4600F031FC01B022462B4620
:10213000BDE8F04F00F028BD00F008FA22462B461B
:1021400000F024FC1C4A7A4402EBC603D3E90023C6
:1021500000F026FD22462B4600F022FD174A7A4465
:1021600002EBC603D3E9002300F00EFD009A002A1B
:10217000B8BF81F00041BDE8F88F000000001044B6
:102180000000F07F182D4454FB21F93FFB21F9BFDB
:102190000000DC3F0000203E0000F33F0000F03F65
:1021A0000000E63F008003400000F83F0000F0BF61
:1021B000C2130000801300001E130000E61200008E
:1021C0002DE9F04D9446CCF1000423F000464CEA92
:1021D0000404524F46EAD4749A46884621F00042DD
:1021E000BC4206D8454240EA050442EAD474BC42E7
:1021F00004D9BDE8F04D6246FFF7C8BEAAF14055CC
:10220000A5F17F6555EA0C040BD0022404EAAA74F8
:10221000434DDFF810E144EAD87452EA000B04D0D1
:102220000CE0BDE8F04DFFF7BBBE002C14BF012C45
:10223000BDE8F08D022C30D0032C32D056EA0C0BC6
:102240000AD0BE4220D1BA4209D126F0804622F0FF
:1022500080423346114617E000291ADB25E0DFF8FB
:10226000C8B0FB44002C04BFDBE90001BDE8F08DE1
:10227000012C02BFDBE9000181F00041BDE8F08DD7
:10228000022C0AD0032C0CD0BA4212D1B8F1000FA4
:102290000BDA23482549BDE8F08D28462449BDE8DE
:1022A000F08D28467146BDE8F08D1D482149BDE8F6
:1022B000F08D921B12153C2AC4BF19481D490EDC33
:1022C000BAF1000FBEBF12F13C0F0020014606DB41
:1022D000624600F0EBF921F00041FFF761FE002CAF
:1022E00008BFBDE8F08D012C04BF81F00041BDE8BE
:1022F000F08D114A114B022C07D000F051FC2A46F8
:10230000BDE8F04D0A4B00F04BBC00F049FC2A46FA
:10231000BDE8F04D064B00F037BC00000000F07F38
:10232000182D4454FB2109C07A120000FB21F9BF8B
:10233000FB210940FB21F93F075C143326A6A13C91
:10234000FEF768FBFFF754FCFFF7AAFBFFF7C6FB9D
:10235000FFF7E4FBFFF749FA00214848FEF7E6FFE4
:1023600004214648FEF7E2FF08214448FEF7DEFF5D
:102370000C214248FEF7DAFFDFF80491414C4FF0A0
:10238000000A00BFFFF748FA3F4861680F4600683F
:1023900000F058FF21690D4600F088FE0646A06057
:1023A0003A483946006800F04DFF294600F07EFEAD
:1023B0008046E060208800F065FE8346314600F0EC
:1023C00041FF0746414600F03DFF05466061384643
:1023D000414600F0FBFC0746A0615846314600F03C
:1023E000F5FC8346414600F02DFF0646E061584665
:1023F000414600F0EBFC264920628D4202D3C4F82E
:1024000014A003E04D4501DDC4F814908F4202D3BF
:10241000C4F818A003E04F4501DDC4F818908E42BF
:1024200002D3C4F81CA003E04E4501DDC4F81C90A3
:10243000884202D3C4F820A003E0484501DDC4F877
:102440002090606900F0E6FD0C4D80B22968486379
:10245000A06900F0DFFD296880B28863E06900F0C0
:10246000D9FD296880B2C863206A00F0D3FD81B22B
:10247000286801640A20FDF70DFF83E7B4000020FF
:1024800000002F4400000020480000204C000020E5
:102490000000808011B583B04FF0FF34012303AA00
:1024A000D02107480094FEF7E9F9012301AAD021C1
:1024B00003480094FEF7BAF89DF8040004B010BD7C
:1024C000600000201CB502238DF804004FF0FF309F
:1024D0008DF80510009001AAD0210248FEF7CEF930
:1024E0001CBD00006000002021F00042A2F16052FB
:1024F000B2F5801F01F0004328BFD2F17F6C0BD9E9
:102500005FEA001C43EAC20242EB507018BF7047FA
:1025100028BF20F001007047B2F5801FBCBF1846ED
:1025200070474FEA410C1CF5001F02D2084600F02C
:1025300084BE70B500F0D4FA00000089FFF7F6BF42
:102540004FF00040A0F580007047000010B591EA00
:10255000030F48BF83F0004300F12A83841A71EB14
:10256000030C05D2121943EB0C03001B61EB0C01A9
:10257000DFF824E14FEA1154A4EB135C1EEA430F89
:1025800018BF9EEA445F73D023EA0E03DCF1200EED
:1025900021EA045143F4801332D322FA0CFE10EBEB
:1025A0000E0023FA0CFE41EB0E01CCF1200E03FAD3
:1025B0000EFE10EB0E0051F10001B1F5801FCCF1C1
:1025C000200E32D201EB045112FA0EF2BDE8104097
:1025D00058BF7047401C38BF5FEA420218BF7047BF
:1025E000002814BF20F0010041F100014FEA41032F
:1025F00013F5001F38BF7047A1F1C04100F0BEBA0B
:10260000012A43EB0302ACF1200CDCF11F0E32BFB8
:102610004FF0000E23FA0CF310EB030041EB0451D2
:10262000B4EB115FD0D0A1EB045101F58011490842
:102630005FEA300001EB04510ED350F1000038BFC7
:1026400012FA0EFE08D1BDE81040C9E7401C38BFA1
:102650005FEA4202CAD1C3E7BDE810404FEA410336
:1026600013F5001F38BF7047A1F1C04100F086BAD2
:102670009EEA445F08D011EA5E0FBDE8104004BF37
:1026800001F0004100207047BDE8104070B500F037
:1026900027FA00BF64FBBE3E0000E0FF02494FF096
:1026A000000000F044BE00BF0000F87F2DE9C041EB
:1026B00030B4DFF8A0C23CEA111418BF3CEA13148E
:1026C00000F0EC8081EA03051CEA111444EAD57499
:1026D00018BF1CEA131500F0C780A4EB05044FF0E7
:1026E000004545EAC12145EAC32341EA505143EA86
:1026F000525304F17F74994204F500344FEAC0202C
:102700004FEAC22208BF904200F09C804FEA136556
:102710000FF24016765D4FEA134506FB05F7C7F149
:10272000807706FB07F74FEAD737A7FB03687642A7
:10273000C8F58038A7FB06CE38BFA8F1010807FB13
:1027400008E64FF0000EA6FB028CE6FB03CEDCF1A0
:10275000000CCEF1004E38BFAEF1010EA6FB0C58B6
:102760004FF000074FF00005E6FB0E87A1FB08C6FF
:10277000A0FB07CE16EB0E0645F10005E1FB076551
:1027800015F1E04E7EBFA4F580345FEA46066D4148
:1027900016F1800745F100054FEA17274FEA066654
:1027A00047EA0567A6F1DE46B6F1805F4FEA1525D8
:1027B0001FD9384624F0010C05EBC471BCF1FE6F43
:1027C00001EB0C1102D8F0BCBDE8008124425CBFD3
:1027D00001F5801E9EEAC47F02D4F0BCBDE80081F2
:1027E000244238D4F0BCA1F1C041BDE8004100F062
:1027F000C5B94FEAD22242EA43524FEAD323A7FB9C
:1028000002864FEAD02040EA415007FB03661EEAE9
:102810000E0F4FEAD12105FB026658BFA6EB00560A
:10282000B6EB00564FEA520E4EEAC37E18EB0E0E80
:1028300056EB530EBDD518EB02085E417F1C55F1D7
:102840000005B6E74FF480154FF000074FF0000683
:102850004FF00008ADE7F0BC4FF0000001F1C041BF
:1028600001F00041BDE8008111EA0C1F0CEA1315CC
:1028700000D00CE013EA0C1F00F025804FF00000A0
:10288000F0BC81EA030101F00041BDE80081F0BC29
:10289000BDE8004181EA030100F070B9F0BCBDE879
:1028A000004170B500F01CF9097EFC3E00F007B84D
:1028B00081EA03014FF0000001F00041704781EA16
:1028C000030100F05BB9F0BCBDE800414FF000002F
:1028D00021497047FFFDFBF9F7F5F4F2F0EEEDEB5F
:1028E000E9E8E6E4E3E1E0DEDDDBDAD8D7D5D4D30E
:1028F000D1D0CFCDCCCBCAC8C7C6C5C4C2C1C0BF5A
:10290000BEBDBCBBBAB9B8B7B6B5B4B3B2B1B0AF5F
:10291000AEADACABAAA9A8A8A7A6A5A4A3A3A2A143
:10292000A09F9F9E9D9C9C9B9A99999897979695FE
:1029300095949393929191908F8F8E8E8D8C8C8B9A
:102940008B8A898988888787868585848483838222
:10295000828181800000FF070000F87F10F00042B4
:1029600048BF4042B0FA80F310FA03F10AD0C3F135
:102970001D0303F580634FEA415002EB035202EB63
:10298000D12170474FF0000070470000DFF848C1C8
:1029900070B51CEA111E1EBF1CEA13159EEA0C0F2F
:1029A00095EA0C0F00F06F8081EA030423EA4C13D0
:1029B0004EEAD47E21EA4C1141F4801143F4801395
:1029C000AE44A1FB024CA0FB0365AEF17F7E36193D
:1029D00055EB0C05A1FB034C4CF10003A0FB021CC2
:1029E00016EB0C06654153F10003094218BF46F08F
:1029F000010613F4007F0BD14FEA03314FEA053093
:102A0000340341EA155140EA16506FF003020AE020
:102A10004FEAC3214FEAC520F40241EA555140EA8A
:102A200056506FF0020202EB2E4201EB025585EA8E
:102A3000CE710AD05FEA440C18BF24F0004450F174
:102A4000000041F1000120EAD47040F2FE7C6245B2
:102A500000D270BDA84214BF4FF080444FF04044F4
:102A6000002E08BF0024BEF1806FA8BFA1F1C041B5
:102A7000BDE8704080F282804FF0000001F1C0415B
:102A800001F0004170479EEA0C0F0CEA131518BFC5
:102A900095EA0C0F06D04FF0000081EA030E0EF00D
:102AA000004170BD00F01CF88900013E00F007B83D
:102AB00000F009B84FEA430C5FEA5C5C08D081EA99
:102AC000030100F05BB84FEA410C5FEA5C5CF6D1B1
:102AD0004FF00000014970470000FF070000F87F39
:102AE0000EF1020E2EF0030E5EF8046B364205D492
:102AF000012A43EB030515F5001F12D8012841EB0D
:102B0000010C1CF5001F0CD80ED14FEAD17C15F535
:102B1000001F0CEB4C0C0CF1020C08BF4CEBD37CEF
:102B200004E04FF0080C01E04FEAD37C0CEB4C05BD
:102B300026FA05F606F00706B6F1040C06D20EEBEF
:102B4000860CBDE870404CF0010C6047DFE80CF0EB
:102B5000090B02024FF000414FF00000A1F50021E7
:102B600070BD19461046012851EB010418BFD4F579
:102B7000001484BF002001F0004170BD0808A0F5DA
:102B800000114FEA3101704791EA030F10B581F04F
:102B900000413FF5E3AC83F0004300F009B80000CA
:102BA00010B591EA030F48BF83F000433FF5D6AC60
:102BB000841A71EB030C07D212198CF0004C43EB12
:102BC0000C03001B61EB0C01DFF8A4E14FEA115488
:102BD000A4EB135C1EEA430F18BF9EEA445F00F0AB
:102BE000B08023EA6E03524221EA0451C3EB6E0324
:102BF00038BF5B1EDCF1200E25D322FA0CFE10EB51
:102C00000E0043FA0CFE41EB0E01CCF1200E03FA4C
:102C10000EFE10EB0E0051F10001CCF1200E29D474
:102C200012FA0EF201EB0451BDE8104058BF704794
:102C3000401C1CBFB2F1004F704700280CBF491C5C
:102C400020F00100704712EB020E43EB030218BFA5
:102C50004FF0010E4EEA4202ACF1200CDCF11E0EE8
:102C600054D943FA0CFE10EB0E0051F1FF31CCF1B8
:102C70001E0ED5D50EF1010E12FA0EFE404141EBAB
:102C8000010101EB445C5FEA5C5C10D910EBDE7083
:102C900001EB045138BFBEF1004FBDE8104018BF32
:102CA000704700280CBF491C20F00100704730D24B
:102CB0004FEAD42C11F5001124F400641BD0B1FAB2
:102CC00081F20B3AA41AA41ED2F12003914030FAEB
:102CD00003F31943904001EBCC71002C01EB04513C
:102CE000BDE81040A8BF704701F1C0414FF000009F
:102CF00001F000417047B0FA80F310FA03F100D1FF
:102D000010BDE41A173C4805C90AE4E701EB045179
:102D100010BD491001EB0451BDE810404FEA3000EE
:102D200002E04FF0000170474A0008BF0042F8D0AF
:102D3000B2F5001F28BF704701F000414FF00000BE
:102D400070479EEA445F07D011EA5E0FBDE810406D
:102D500004BF002100207047BDE8104070B5FFF7A8
:102D6000BFFE00BF40DFF63E83F0004110467047D3
:102D70000000E0FF43004FEAD30C4FEA3C0C434015
:102D80001FBF40070CF1605113F0FE4F70471CF05D
:102D9000006F03D100200CF0004170470CF000439D
:102DA00043EA507010B540EACC0000F000FA00BFD2
:102DB000000000924FEA0001FFF7E0BE4FF0004133
:102DC0004FF00000A1F500217047000090EA010FCC
:102DD00048BF81F0004100F13C82421A3CBF801A9A
:102DE00089184FEAD0524FF07F4C1CEA410FA2EBFA
:102DF000D15318BF9CEA026F00F03B804FF0004CAB
:102E00004CEA00204CEA012121FA03FC10EB0C0CE7
:102E10001ED202F1FF325FEA1C2040EBC25038BFE5
:102E200070471CF07F0F4FEA400C18BFBCF17F4F7A
:102E300038BF7047C3F12003994008BF20F001005C
:102E4000BCF17F4F38BF7047A0F1C04000F0F5B92A
:102E50004FEA3C00000A40EBC25028BF1CF0FF0FB5
:102E60004FEA400CE6D018BFBCF17F4F38BF704727
:102E7000EAE79CEA026F05D010EA5C0F08BF00F099
:102E80000040704710B500F092F900BF64FBBE3EF1
:102E90004FF47F0C1CEAD0121EBF1CEAD11392EA39
:102EA0000C0F93EA0C0F00F0858090EA010F48BFE9
:102EB00042F4807240F4000C41F400002CF07F4199
:102EC00020F07F4000B58142A2EB03020FF2081C04
:102ED000ACEB504EC0F100009EF800E04FEA4E0E01
:102EE00000FB0EFC38BF49004FEA2C1C02F5FA0229
:102EF0000CFB0EF34FEACE1E4FEA112C4FEAC12114
:102F00000EEB635E42EB22420EFB0CFC4FEA1C53BD
:102F100000FB03114FEA112C4FEA01310EFB0CFCB0
:102F20004FEADC4C00FB0C11C14228BF09184CEBE6
:102F300003335DF804EB10EB410143EBC250B2F5F3
:102F40007C0F38BF704729D512F0F00F1CBF00F17D
:102F5000C04000F0004070470081828384858687EE
:102F600088898B8C8D8E8F919293959697999A9C48
:102F70009D9FA0A2A3A5A7A8AAACAEB0B2B3B5B7B7
:102F8000B9BCBEC0C2C5C7C9CCCED1D4D7D9DCDF8D
:102F9000E2E6E9ECF0F3F7FAFE0000004FEA400C3D
:102FA0000CF1807CBCF17E4F28BF7047B0F1C0406F
:102FB00000F043B990EA010F0CEAD11348BF42F484
:102FC0008072624538BF634507D213F47F0F16D075
:102FD00080EA010000F00040704710B500F0E7F80B
:102FE000097EFC3E00F005B880EA010000F00040D8
:102FF000704780EA010000F0004000F01EB912F4B2
:103000007F0F04BF0248704780EA010000F015B945
:103010000000C07FC10DD1F19E0206DB4FEA002304
:1030200043F0004323FA02F07047004207D54FEA0D
:103030004001B1F1FE4F02D24FF00000704710B5D1
:1030400000F0B5F849922480002070476FEA200014
:103050007047000010F0004148BF4042B0FA80F3D2
:1030600010FA03F2C3F19D030BD051EAC35101EBF7
:103070001220530638BF704700F1010008BF20F04E
:1030800001007047B0FA80F310FA03F2C3F19D0318
:103090000AD0D90501EB1220530638BF704700F162
:1030A000010008BF20F00100704700004FF47F0CC2
:1030B0001CEAD0121EBF1CEAD11392EA0C0F93EA4D
:1030C0000C0F00F0478090EA010F48BF42F4807275
:1030D0004FF0004C4CEA00204CEA012102EB0302C5
:1030E000A0FB0113A2F50002002918BF43F0010361
:1030F0005B0028BF4FEA330342EB22425FEA132C06
:103100004CEBC2502EBFBCEB436FB2F57C0F704747
:103110004FEA036CBCF1004F08BF20F00100B2F58C
:103120007C0F38BF70470BD582F0FF0212F5803F4D
:10313000C8BF704700F1C040D8BF00F000407047E2
:1031400000F5000C5FEA4C0C48BF7047B0F1C0407E
:1031500000F073B890EA010F0CEAD11348BF42F4B3
:103160008072624538BF634504D280EA010000F0F6
:103170000040704710B500F01AF800BF8900013E0A
:1031800000F007B800F009B85FEA410C5FEA1C6C78
:1031900008D080EA010000F050B85FEA400C5FEA16
:1031A0001C6CF6D14FF00040A0F5800070470EF186
:1031B000020E2EF0030E5EF8044B244204D44FEAB4
:1031C0004102B2F17F4F11D84FEA4003B3F17F4F74
:1031D0000CD80ED14FEAD07CB2F17F4F0CEB4C0CE7
:1031E0000CF1020C08BF4CEBD17C04E04FF0080C52
:1031F00001E04FEAD17C0CEB4C0324FA03F404F019
:103200000704B4F1040C06D20EEB840CBDE81040A8
:103210004CF0010C6047DFE80CF0070802024FF0A9
:103220000040A0F5800010BD0846420018BFD2F152
:10323000807288BF00F0004010BDFF2141EAD050ED
:10324000C005704790EA010F48BF81F000413FF58B
:10325000C4AD421A04D882F00042A0EB020011442F
:103260004FEAD0524FF07F4C1CEA410FA2EBD153F2
:1032700018BF9CEA026F4AD04FF0004C4CEA002085
:103280004CEA012121FA03FCB0EB0C0C0FD412F034
:10329000FE0F36D05FEA4C001DD5001240EBC25045
:1032A00038BF70471CF03F0F18BF70470BE0A2F10A
:1032B00001025FEA1C2040EBC25038BF70471CF08F
:1032C0007F0F18BF7047C3F12003994014BF401E01
:1032D00020F00100704780084FEA122308BF7047B2
:1032E000B0FA80FCA2EB0C02CCF1280C60FA0CF0D6
:1032F00093EA122F04BF00EBC25070474FEAC3702D
:103300007047130A5FEADC1008BF7047F6E79CEAD3
:10331000026F04D010EA5C0F08BF0020704710B5A0
:10332000FFF745FF40DFF63E81F0004070470CF0AC
:103330000F03092B08BF082000F059800A2B0BD07F
:10334000082B18BF704708BF1CF0400F0AD04FF081
:1033500000004FF0000170471CF0400F18BF4FF005
:10336000004070471CF0100F08D020F0704300F0B0
:103370007F4242EAD3014FEA4370704700F0604059
:1033800021F07F4242EA000201F07F4040EA727081
:1033900070474FF0FF0C4CF4E06C1CEA11531CBF5B
:1033A0009CEA030C9445C2BFDA4201EB025170471C
:1033B000002B0DD0BCF1000F0FD0002A01F000410E
:1033C000A4BF41F0E04141F07F614FF00000704741
:1033D00001F000414FF00000704750EA01334FF018
:1033E0009B0C18BF4CF0806C7FF458A970471CF4FC
:1033F000801F11D01CF4E02F03D06FEACC314900BC
:1034000070474FF04050EFF3008222F0704242EAE2
:10341000000282F3008870474FF0000070470102FD
:1034200002030405060708090A0B0C0D0E0F101005
:103430000000000000000000010203040607080964
:1034400000000000010203044FBB610567ACDD3FD3
:10345000182D4454FB21E93F9BF681D20B73EF3FBB
:10346000182D4454FB21F93FE2652F227F2B7A3C33
:10347000075C143326A6813CBDCBF07A8807703CEC
:10348000075C143326A6913CC4EB98999999C9BF5F
:10349000711623FEC671BCBF6D9A74AFF2B0B3BF94
:1034A0009AFDDE522DDEADBF2F6C6A2C44B4A2BF54
:1034B0000D5555555555D53FFF8300922449C23FC0
:1034C0006E204CC5CD45B73F513DD0A0660DB13FF4
:1034D000EB0D76244B7BA93F11DA22E33AAD903F06
:1034E0000000000000000000083500080000002077
:1034F0006000000028010008683500086000002016
:103500000007000044010008320000000000000035
:1035100000000000000000000000A04000000000CB
:103520000000000000000000000000000000034355
:10353000000000000000000000000000000000008B
:10354000000000000000000000000000000000007B
:10355000000000000000000001000000100000005A
:083560000000000000127A00D7
:04000005080000ED02
:00000001FF
